{
  "contractName": "Owned",
  "abi": [
    {
      "constant": true,
      "inputs": [],
      "name": "owner",
      "outputs": [
        {
          "name": "",
          "type": "address"
        }
      ],
      "payable": false,
      "stateMutability": "view",
      "type": "function"
    },
    {
      "anonymous": false,
      "inputs": [
        {
          "indexed": true,
          "name": "old",
          "type": "address"
        },
        {
          "indexed": true,
          "name": "current",
          "type": "address"
        }
      ],
      "name": "NewOwner",
      "type": "event"
    },
    {
      "constant": false,
      "inputs": [
        {
          "name": "_new",
          "type": "address"
        }
      ],
      "name": "setOwner",
      "outputs": [],
      "payable": false,
      "stateMutability": "nonpayable",
      "type": "function"
    }
  ],
  "bytecode": "0x6080604052336000806101000a81548173ffffffffffffffffffffffffffffffffffffffff021916908373ffffffffffffffffffffffffffffffffffffffff16021790555034801561005057600080fd5b50610255806100606000396000f30060806040526004361061004c576000357c0100000000000000000000000000000000000000000000000000000000900463ffffffff16806313af4035146100515780638da5cb5b14610094575b600080fd5b34801561005d57600080fd5b50610092600480360381019080803573ffffffffffffffffffffffffffffffffffffffff1690602001909291905050506100eb565b005b3480156100a057600080fd5b506100a9610204565b604051808273ffffffffffffffffffffffffffffffffffffffff1673ffffffffffffffffffffffffffffffffffffffff16815260200191505060405180910390f35b6000809054906101000a900473ffffffffffffffffffffffffffffffffffffffff1673ffffffffffffffffffffffffffffffffffffffff163373ffffffffffffffffffffffffffffffffffffffff1614151561014657600080fd5b8073ffffffffffffffffffffffffffffffffffffffff166000809054906101000a900473ffffffffffffffffffffffffffffffffffffffff1673ffffffffffffffffffffffffffffffffffffffff167f70aea8d848e8a90fb7661b227dc522eb6395c3dac71b63cb59edd5c9899b236460405160405180910390a3806000806101000a81548173ffffffffffffffffffffffffffffffffffffffff021916908373ffffffffffffffffffffffffffffffffffffffff16021790555050565b6000809054906101000a900473ffffffffffffffffffffffffffffffffffffffff16815600a165627a7a72305820556c373a9a3dceb21fc017688c018a6a8c3138bfa39d55bc82e1df2aa1b457460029",
  "source": "//! The owned contract.\n//!\n//! Copyright 2016 Gavin Wood, Parity Technologies Ltd.\n//!\n//! Licensed under the Apache License, Version 2.0 (the \"License\");\n//! you may not use this file except in compliance with the License.\n//! You may obtain a copy of the License at\n//!\n//!     http://www.apache.org/licenses/LICENSE-2.0\n//!\n//! Unless required by applicable law or agreed to in writing, software\n//! distributed under the License is distributed on an \"AS IS\" BASIS,\n//! WITHOUT WARRANTIES OR CONDITIONS OF ANY KIND, either express or implied.\n//! See the License for the specific language governing permissions and\n//! limitations under the License.\n\npragma solidity ^0.4.17;\n\n\ncontract Owned {\n\tmodifier onlyOwner {\n\t\trequire(msg.sender == owner);\n\t\t_;\n\t}\n\n\tevent NewOwner(address indexed old, address indexed current);\n\n\tfunction setOwner(address _new) onlyOwner public {\n\t\temit NewOwner(owner, _new);\n\t\towner = _new;\n\t}\n\n\taddress public owner = msg.sender;\n}\n",
  "sourcePath": "/home/sorpaas/repos/name-registry/contracts/Owned.sol",
  "compiler": {
    "name": "solc",
    "version": "0.4.23+commit.124ca40d.Emscripten.clang"
  },
  "schemaVersion": "2.0.0",
  "updatedAt": "2018-05-09T11:37:11.102Z"
}