{
  "contractName": "SimpleRegistry",
  "abi": [
    {
      "constant": false,
      "inputs": [
        {
          "name": "_new",
          "type": "address"
        }
      ],
      "name": "setOwner",
      "outputs": [],
      "payable": false,
      "stateMutability": "nonpayable",
      "type": "function"
    },
    {
      "constant": true,
      "inputs": [],
      "name": "owner",
      "outputs": [
        {
          "name": "",
          "type": "address"
        }
      ],
      "payable": false,
      "stateMutability": "view",
      "type": "function"
    },
    {
      "constant": true,
      "inputs": [],
      "name": "fee",
      "outputs": [
        {
          "name": "",
          "type": "uint256"
        }
      ],
      "payable": false,
      "stateMutability": "view",
      "type": "function"
    },
    {
      "anonymous": false,
      "inputs": [
        {
          "indexed": false,
          "name": "amount",
          "type": "uint256"
        }
      ],
      "name": "Drained",
      "type": "event"
    },
    {
      "anonymous": false,
      "inputs": [
        {
          "indexed": false,
          "name": "amount",
          "type": "uint256"
        }
      ],
      "name": "FeeChanged",
      "type": "event"
    },
    {
      "anonymous": false,
      "inputs": [
        {
          "indexed": true,
          "name": "name",
          "type": "string"
        },
        {
          "indexed": true,
          "name": "reverse",
          "type": "address"
        }
      ],
      "name": "ReverseProposed",
      "type": "event"
    },
    {
      "anonymous": false,
      "inputs": [
        {
          "indexed": true,
          "name": "name",
          "type": "string"
        },
        {
          "indexed": true,
          "name": "reverse",
          "type": "address"
        }
      ],
      "name": "ReverseConfirmed",
      "type": "event"
    },
    {
      "anonymous": false,
      "inputs": [
        {
          "indexed": true,
          "name": "name",
          "type": "string"
        },
        {
          "indexed": true,
          "name": "reverse",
          "type": "address"
        }
      ],
      "name": "ReverseRemoved",
      "type": "event"
    },
    {
      "anonymous": false,
      "inputs": [
        {
          "indexed": true,
          "name": "name",
          "type": "bytes32"
        },
        {
          "indexed": true,
          "name": "owner",
          "type": "address"
        }
      ],
      "name": "Reserved",
      "type": "event"
    },
    {
      "anonymous": false,
      "inputs": [
        {
          "indexed": true,
          "name": "name",
          "type": "bytes32"
        },
        {
          "indexed": true,
          "name": "oldOwner",
          "type": "address"
        },
        {
          "indexed": true,
          "name": "newOwner",
          "type": "address"
        }
      ],
      "name": "Transferred",
      "type": "event"
    },
    {
      "anonymous": false,
      "inputs": [
        {
          "indexed": true,
          "name": "name",
          "type": "bytes32"
        },
        {
          "indexed": true,
          "name": "owner",
          "type": "address"
        }
      ],
      "name": "Dropped",
      "type": "event"
    },
    {
      "anonymous": false,
      "inputs": [
        {
          "indexed": true,
          "name": "name",
          "type": "bytes32"
        },
        {
          "indexed": true,
          "name": "key",
          "type": "string"
        },
        {
          "indexed": false,
          "name": "plainKey",
          "type": "string"
        }
      ],
      "name": "DataChanged",
      "type": "event"
    },
    {
      "anonymous": false,
      "inputs": [
        {
          "indexed": true,
          "name": "old",
          "type": "address"
        },
        {
          "indexed": true,
          "name": "current",
          "type": "address"
        }
      ],
      "name": "NewOwner",
      "type": "event"
    },
    {
      "constant": true,
      "inputs": [
        {
          "name": "_name",
          "type": "bytes32"
        },
        {
          "name": "_key",
          "type": "string"
        }
      ],
      "name": "getData",
      "outputs": [
        {
          "name": "",
          "type": "bytes32"
        }
      ],
      "payable": false,
      "stateMutability": "view",
      "type": "function"
    },
    {
      "constant": true,
      "inputs": [
        {
          "name": "_name",
          "type": "bytes32"
        },
        {
          "name": "_key",
          "type": "string"
        }
      ],
      "name": "getAddress",
      "outputs": [
        {
          "name": "",
          "type": "address"
        }
      ],
      "payable": false,
      "stateMutability": "view",
      "type": "function"
    },
    {
      "constant": true,
      "inputs": [
        {
          "name": "_name",
          "type": "bytes32"
        },
        {
          "name": "_key",
          "type": "string"
        }
      ],
      "name": "getUint",
      "outputs": [
        {
          "name": "",
          "type": "uint256"
        }
      ],
      "payable": false,
      "stateMutability": "view",
      "type": "function"
    },
    {
      "constant": true,
      "inputs": [
        {
          "name": "_name",
          "type": "bytes32"
        }
      ],
      "name": "getOwner",
      "outputs": [
        {
          "name": "",
          "type": "address"
        }
      ],
      "payable": false,
      "stateMutability": "view",
      "type": "function"
    },
    {
      "constant": true,
      "inputs": [
        {
          "name": "_name",
          "type": "bytes32"
        }
      ],
      "name": "hasReverse",
      "outputs": [
        {
          "name": "",
          "type": "bool"
        }
      ],
      "payable": false,
      "stateMutability": "view",
      "type": "function"
    },
    {
      "constant": true,
      "inputs": [
        {
          "name": "_name",
          "type": "bytes32"
        }
      ],
      "name": "getReverse",
      "outputs": [
        {
          "name": "",
          "type": "address"
        }
      ],
      "payable": false,
      "stateMutability": "view",
      "type": "function"
    },
    {
      "constant": true,
      "inputs": [
        {
          "name": "_data",
          "type": "address"
        }
      ],
      "name": "canReverse",
      "outputs": [
        {
          "name": "",
          "type": "bool"
        }
      ],
      "payable": false,
      "stateMutability": "view",
      "type": "function"
    },
    {
      "constant": true,
      "inputs": [
        {
          "name": "_data",
          "type": "address"
        }
      ],
      "name": "reverse",
      "outputs": [
        {
          "name": "",
          "type": "string"
        }
      ],
      "payable": false,
      "stateMutability": "view",
      "type": "function"
    },
    {
      "constant": false,
      "inputs": [
        {
          "name": "_name",
          "type": "bytes32"
        }
      ],
      "name": "reserve",
      "outputs": [
        {
          "name": "success",
          "type": "bool"
        }
      ],
      "payable": true,
      "stateMutability": "payable",
      "type": "function"
    },
    {
      "constant": true,
      "inputs": [
        {
          "name": "_name",
          "type": "bytes32"
        }
      ],
      "name": "reserved",
      "outputs": [
        {
          "name": "",
          "type": "bool"
        }
      ],
      "payable": false,
      "stateMutability": "view",
      "type": "function"
    },
    {
      "constant": false,
      "inputs": [
        {
          "name": "_name",
          "type": "bytes32"
        },
        {
          "name": "_to",
          "type": "address"
        }
      ],
      "name": "transfer",
      "outputs": [
        {
          "name": "success",
          "type": "bool"
        }
      ],
      "payable": false,
      "stateMutability": "nonpayable",
      "type": "function"
    },
    {
      "constant": false,
      "inputs": [
        {
          "name": "_name",
          "type": "bytes32"
        }
      ],
      "name": "drop",
      "outputs": [
        {
          "name": "success",
          "type": "bool"
        }
      ],
      "payable": false,
      "stateMutability": "nonpayable",
      "type": "function"
    },
    {
      "constant": false,
      "inputs": [
        {
          "name": "_name",
          "type": "bytes32"
        },
        {
          "name": "_key",
          "type": "string"
        },
        {
          "name": "_value",
          "type": "bytes32"
        }
      ],
      "name": "setData",
      "outputs": [
        {
          "name": "success",
          "type": "bool"
        }
      ],
      "payable": false,
      "stateMutability": "nonpayable",
      "type": "function"
    },
    {
      "constant": false,
      "inputs": [
        {
          "name": "_name",
          "type": "bytes32"
        },
        {
          "name": "_key",
          "type": "string"
        },
        {
          "name": "_value",
          "type": "address"
        }
      ],
      "name": "setAddress",
      "outputs": [
        {
          "name": "success",
          "type": "bool"
        }
      ],
      "payable": false,
      "stateMutability": "nonpayable",
      "type": "function"
    },
    {
      "constant": false,
      "inputs": [
        {
          "name": "_name",
          "type": "bytes32"
        },
        {
          "name": "_key",
          "type": "string"
        },
        {
          "name": "_value",
          "type": "uint256"
        }
      ],
      "name": "setUint",
      "outputs": [
        {
          "name": "success",
          "type": "bool"
        }
      ],
      "payable": false,
      "stateMutability": "nonpayable",
      "type": "function"
    },
    {
      "constant": false,
      "inputs": [
        {
          "name": "_name",
          "type": "string"
        },
        {
          "name": "_who",
          "type": "address"
        }
      ],
      "name": "proposeReverse",
      "outputs": [
        {
          "name": "success",
          "type": "bool"
        }
      ],
      "payable": false,
      "stateMutability": "nonpayable",
      "type": "function"
    },
    {
      "constant": false,
      "inputs": [
        {
          "name": "_name",
          "type": "string"
        }
      ],
      "name": "confirmReverse",
      "outputs": [
        {
          "name": "success",
          "type": "bool"
        }
      ],
      "payable": false,
      "stateMutability": "nonpayable",
      "type": "function"
    },
    {
      "constant": false,
      "inputs": [
        {
          "name": "_name",
          "type": "string"
        },
        {
          "name": "_who",
          "type": "address"
        }
      ],
      "name": "confirmReverseAs",
      "outputs": [
        {
          "name": "success",
          "type": "bool"
        }
      ],
      "payable": false,
      "stateMutability": "nonpayable",
      "type": "function"
    },
    {
      "constant": false,
      "inputs": [],
      "name": "removeReverse",
      "outputs": [],
      "payable": false,
      "stateMutability": "nonpayable",
      "type": "function"
    },
    {
      "constant": false,
      "inputs": [
        {
          "name": "_amount",
          "type": "uint256"
        }
      ],
      "name": "setFee",
      "outputs": [
        {
          "name": "",
          "type": "bool"
        }
      ],
      "payable": false,
      "stateMutability": "nonpayable",
      "type": "function"
    },
    {
      "constant": false,
      "inputs": [],
      "name": "drain",
      "outputs": [
        {
          "name": "",
          "type": "bool"
        }
      ],
      "payable": false,
      "stateMutability": "nonpayable",
      "type": "function"
    }
  ],
  "bytecode": "0x6080604052336000806101000a81548173ffffffffffffffffffffffffffffffffffffffff021916908373ffffffffffffffffffffffffffffffffffffffff160217905550670de0b6b3a764000060035534801561005c57600080fd5b506128fe8061006c6000396000f30060806040526004361061013e576000357c0100000000000000000000000000000000000000000000000000000000900463ffffffff16806306b2ff471461014357806313af40351461019e57806319362a28146101e15780633f3935d11461027e578063432ced04146102ff5780634f39ca591461033b5780636795dbcd1461038457806369fe0e2d1461043b57806379ce9fac146104805780638da5cb5b146104e957806390b97fc11461054057806392698814146105d35780639890220b1461061c578063ac4e73f91461064b578063ac72c120146106ec578063c3a3582514610735578063ddca3f43146107c0578063deb931a2146107eb578063df57b7421461085c578063e30bd740146108cd578063eadf976014610989578063ef5454d614610a22578063f25eb5c114610ac3578063f6d339e414610ada575b600080fd5b34801561014f57600080fd5b50610184600480360381019080803573ffffffffffffffffffffffffffffffffffffffff169060200190929190505050610b89565b604051808215151515815260200191505060405180910390f35b3480156101aa57600080fd5b506101df600480360381019080803573ffffffffffffffffffffffffffffffffffffffff169060200190929190505050610be9565b005b3480156101ed57600080fd5b506102646004803603810190808035600019169060200190929190803590602001908201803590602001908080601f01602080910402602001604051908101604052809392919081815260200183838082843782019150505050505091929192908035600019169060200190929190505050610d02565b604051808215151515815260200191505060405180910390f35b34801561028a57600080fd5b506102e5600480360381019080803590602001908201803590602001908080601f0160208091040260200160405190810160405280939291908181526020018383808284378201915050505050509192919290505050610f1e565b604051808215151515815260200191505060405180910390f35b6103216004803603810190808035600019169060200190929190505050611100565b604051808215151515815260200191505060405180910390f35b34801561034757600080fd5b5061036a6004803603810190808035600019169060200190929190505050611226565b604051808215151515815260200191505060405180910390f35b34801561039057600080fd5b506103f96004803603810190808035600019169060200190929190803590602001908201803590602001908080601f01602080910402602001604051908101604052809392919081815260200183838082843782019150505050505091929192905050506113e9565b604051808273ffffffffffffffffffffffffffffffffffffffff1673ffffffffffffffffffffffffffffffffffffffff16815260200191505060405180910390f35b34801561044757600080fd5b506104666004803603810190808035906020019092919050505061147f565b604051808215151515815260200191505060405180910390f35b34801561048c57600080fd5b506104cf6004803603810190808035600019169060200190929190803573ffffffffffffffffffffffffffffffffffffffff169060200190929190505050611523565b604051808215151515815260200191505060405180910390f35b3480156104f557600080fd5b506104fe611666565b604051808273ffffffffffffffffffffffffffffffffffffffff1673ffffffffffffffffffffffffffffffffffffffff16815260200191505060405180910390f35b34801561054c57600080fd5b506105b56004803603810190808035600019169060200190929190803590602001908201803590602001908080601f016020809104026020016040519081016040528093929190818152602001838380828437820191505050505050919291929050505061168b565b60405180826000191660001916815260200191505060405180910390f35b3480156105df57600080fd5b50610602600480360381019080803560001916906020019092919050505061171d565b604051808215151515815260200191505060405180910390f35b34801561062857600080fd5b5061063161177e565b604051808215151515815260200191505060405180910390f35b34801561065757600080fd5b506106d2600480360381019080803590602001908201803590602001908080601f0160208091040260200160405190810160405280939291908181526020018383808284378201915050505050509192919290803573ffffffffffffffffffffffffffffffffffffffff16906020019092919050505061188e565b604051808215151515815260200191505060405180910390f35b3480156106f857600080fd5b5061071b6004803603810190808035600019169060200190929190505050611da4565b604051808215151515815260200191505060405180910390f35b34801561074157600080fd5b506107aa6004803603810190808035600019169060200190929190803590602001908201803590602001908080601f0160208091040260200160405190810160405280939291908181526020018383808284378201915050505050509192919290505050611e05565b6040518082815260200191505060405180910390f35b3480156107cc57600080fd5b506107d5611e9b565b6040518082815260200191505060405180910390f35b3480156107f757600080fd5b5061081a6004803603810190808035600019169060200190929190505050611ea1565b604051808273ffffffffffffffffffffffffffffffffffffffff1673ffffffffffffffffffffffffffffffffffffffff16815260200191505060405180910390f35b34801561086857600080fd5b5061088b6004803603810190808035600019169060200190929190505050611ee9565b604051808273ffffffffffffffffffffffffffffffffffffffff1673ffffffffffffffffffffffffffffffffffffffff16815260200191505060405180910390f35b3480156108d957600080fd5b5061090e600480360381019080803573ffffffffffffffffffffffffffffffffffffffff169060200190929190505050611f31565b6040518080602001828103825283818151815260200191508051906020019080838360005b8381101561094e578082015181840152602081019050610933565b50505050905090810190601f16801561097b5780820380516001836020036101000a031916815260200191505b509250505060405180910390f35b34801561099557600080fd5b50610a086004803603810190808035600019169060200190929190803590602001908201803590602001908080601f016020809104026020016040519081016040528093929190818152602001838380828437820191505050505050919291929080359060200190929190505050612012565b604051808215151515815260200191505060405180910390f35b348015610a2e57600080fd5b50610aa9600480360381019080803590602001908201803590602001908080601f0160208091040260200160405190810160405280939291908181526020018383808284378201915050505050509192919290803573ffffffffffffffffffffffffffffffffffffffff169060200190929190505050612231565b604051808215151515815260200191505060405180910390f35b348015610acf57600080fd5b50610ad8612392565b005b348015610ae657600080fd5b50610b6f6004803603810190808035600019169060200190929190803590602001908201803590602001908080601f0160208091040260200160405190810160405280939291908181526020018383808284378201915050505050509192919290803573ffffffffffffffffffffffffffffffffffffffff1690602001909291905050506125b0565b604051808215151515815260200191505060405180910390f35b600080600260008473ffffffffffffffffffffffffffffffffffffffff1673ffffffffffffffffffffffffffffffffffffffff16815260200190815260200160002080546001816001161561010002031660029004905014159050919050565b6000809054906101000a900473ffffffffffffffffffffffffffffffffffffffff1673ffffffffffffffffffffffffffffffffffffffff163373ffffffffffffffffffffffffffffffffffffffff16141515610c4457600080fd5b8073ffffffffffffffffffffffffffffffffffffffff166000809054906101000a900473ffffffffffffffffffffffffffffffffffffffff1673ffffffffffffffffffffffffffffffffffffffff167f70aea8d848e8a90fb7661b227dc522eb6395c3dac71b63cb59edd5c9899b236460405160405180910390a3806000806101000a81548173ffffffffffffffffffffffffffffffffffffffff021916908373ffffffffffffffffffffffffffffffffffffffff16021790555050565b6000833373ffffffffffffffffffffffffffffffffffffffff1660016000836000191660001916815260200190815260200160002060000160009054906101000a900473ffffffffffffffffffffffffffffffffffffffff1673ffffffffffffffffffffffffffffffffffffffff16141515610d7d57610f16565b82600160008760001916600019168152602001908152602001600020600201856040518082805190602001908083835b602083101515610dd25780518252602082019150602081019050602083039250610dad565b6001836020036101000a03801982511681845116808217855250505050505090500191505090815260200160405180910390208160001916905550836040518082805190602001908083835b602083101515610e435780518252602082019150602081019050602083039250610e1e565b6001836020036101000a038019825116818451168082178552505050505050905001915050604051809103902085600019167fb829c3e412537bbe794c048ccb9e4605bb4aaaa8e4d4c15c1a6e0c2adc1716ea866040518080602001828103825283818151815260200191508051906020019080838360005b83811015610ed7578082015181840152602081019050610ebc565b50505050905090810190601f168015610f045780820380516001836020036101000a031916815260200191505b509250505060405180910390a3600191505b509392505050565b6000813373ffffffffffffffffffffffffffffffffffffffff1660016000836040518082805190602001908083835b602083101515610f725780518252602082019150602081019050602083039250610f4d565b6001836020036101000a03801982511681845116808217855250505050505090500191505060405180910390206000191660001916815260200190815260200160002060010160009054906101000a900473ffffffffffffffffffffffffffffffffffffffff1673ffffffffffffffffffffffffffffffffffffffff16141515610ffb576110fa565b82600260003373ffffffffffffffffffffffffffffffffffffffff1673ffffffffffffffffffffffffffffffffffffffff168152602001908152602001600020908051906020019061104e9291906127e5565b503373ffffffffffffffffffffffffffffffffffffffff16836040518082805190602001908083835b60208310151561109c5780518252602082019150602081019050602083039250611077565b6001836020036101000a03801982511681845116808217855250505050505090500191505060405180910390207f098ae8581bb8bd9af1beaf7f2e9f51f31a8e5a8bfada4e303a645d71d9c9192060405160405180910390a3600191505b50919050565b600081600060016000836000191660001916815260200190815260200160002060000160009054906101000a900473ffffffffffffffffffffffffffffffffffffffff1673ffffffffffffffffffffffffffffffffffffffff1614151561116657611220565b6003543410156111755761121f565b3360016000856000191660001916815260200190815260200160002060000160006101000a81548173ffffffffffffffffffffffffffffffffffffffff021916908373ffffffffffffffffffffffffffffffffffffffff1602179055503373ffffffffffffffffffffffffffffffffffffffff1683600019167f4963513eca575aba66fdcd25f267aae85958fe6fb97e75fa25d783f1a091a22160405160405180910390a3600191505b5b50919050565b6000813373ffffffffffffffffffffffffffffffffffffffff1660016000836000191660001916815260200190815260200160002060000160009054906101000a900473ffffffffffffffffffffffffffffffffffffffff1673ffffffffffffffffffffffffffffffffffffffff161415156112a1576113e3565b6002600060016000866000191660001916815260200190815260200160002060010160009054906101000a900473ffffffffffffffffffffffffffffffffffffffff1673ffffffffffffffffffffffffffffffffffffffff1673ffffffffffffffffffffffffffffffffffffffff168152602001908152602001600020600061132a9190612865565b600160008460001916600019168152602001908152602001600020600080820160006101000a81549073ffffffffffffffffffffffffffffffffffffffff02191690556001820160006101000a81549073ffffffffffffffffffffffffffffffffffffffff021916905550503373ffffffffffffffffffffffffffffffffffffffff1683600019167fef1961b4d2909dc23643b309bfe5c3e5646842d98c3a58517037ef3871185af360405160405180910390a3600191505b50919050565b6000600160008460001916600019168152602001908152602001600020600201826040518082805190602001908083835b60208310151561143f578051825260208201915060208101905060208303925061141a565b6001836020036101000a03801982511681845116808217855250505050505090500191505090815260200160405180910390205460019004905092915050565b60008060009054906101000a900473ffffffffffffffffffffffffffffffffffffffff1673ffffffffffffffffffffffffffffffffffffffff163373ffffffffffffffffffffffffffffffffffffffff161415156114dc57600080fd5b816003819055507f6bbc57480a46553fa4d156ce702beef5f3ad66303b0ed1a5d4cb44966c6584c3826040518082815260200191505060405180910390a160019050919050565b6000823373ffffffffffffffffffffffffffffffffffffffff1660016000836000191660001916815260200190815260200160002060000160009054906101000a900473ffffffffffffffffffffffffffffffffffffffff1673ffffffffffffffffffffffffffffffffffffffff1614151561159e5761165f565b8260016000866000191660001916815260200190815260200160002060000160006101000a81548173ffffffffffffffffffffffffffffffffffffffff021916908373ffffffffffffffffffffffffffffffffffffffff1602179055508273ffffffffffffffffffffffffffffffffffffffff163373ffffffffffffffffffffffffffffffffffffffff1685600019167f7b97c62130aa09acbbcbf7482630e756592496f1759eaf702f469cf64dfb779460405160405180910390a4600191505b5092915050565b6000809054906101000a900473ffffffffffffffffffffffffffffffffffffffff1681565b6000600160008460001916600019168152602001908152602001600020600201826040518082805190602001908083835b6020831015156116e157805182526020820191506020810190506020830392506116bc565b6001836020036101000a038019825116818451168082178552505050505050905001915050908152602001604051809103902054905092915050565b60008060016000846000191660001916815260200190815260200160002060000160009054906101000a900473ffffffffffffffffffffffffffffffffffffffff1673ffffffffffffffffffffffffffffffffffffffff1614159050919050565b60008060009054906101000a900473ffffffffffffffffffffffffffffffffffffffff1673ffffffffffffffffffffffffffffffffffffffff163373ffffffffffffffffffffffffffffffffffffffff161415156117db57600080fd5b7fdef931299fe61d176f949118058530c1f3f539dcb6950b4e372c9b835c33ca073073ffffffffffffffffffffffffffffffffffffffff16316040518082815260200191505060405180910390a13373ffffffffffffffffffffffffffffffffffffffff166108fc3073ffffffffffffffffffffffffffffffffffffffff16319081150290604051600060405180830381858888f19350505050158015611886573d6000803e3d6000fd5b506001905090565b600080836040518082805190602001908083835b6020831015156118c757805182526020820191506020810190506020830392506118a2565b6001836020036101000a03801982511681845116808217855250505050505090500191505060405180910390203373ffffffffffffffffffffffffffffffffffffffff1660016000836000191660001916815260200190815260200160002060000160009054906101000a900473ffffffffffffffffffffffffffffffffffffffff1673ffffffffffffffffffffffffffffffffffffffff1614151561196c57611d9c565b846040518082805190602001908083835b6020831015156119a2578051825260208201915060208101905060208303925061197d565b6001836020036101000a03801982511681845116808217855250505050505090500191505060405180910390209150600060016000846000191660001916815260200190815260200160002060010160009054906101000a900473ffffffffffffffffffffffffffffffffffffffff1673ffffffffffffffffffffffffffffffffffffffff1614158015611b21575081600019166002600060016000866000191660001916815260200190815260200160002060010160009054906101000a900473ffffffffffffffffffffffffffffffffffffffff1673ffffffffffffffffffffffffffffffffffffffff1673ffffffffffffffffffffffffffffffffffffffff1681526020019081526020016000206040518082805460018160011615610100020316600290048015611b0e5780601f10611aec576101008083540402835291820191611b0e565b820191906000526020600020905b815481529060010190602001808311611afa575b5050915050604051809103902060001916145b15611c94576002600060016000856000191660001916815260200190815260200160002060010160009054906101000a900473ffffffffffffffffffffffffffffffffffffffff1673ffffffffffffffffffffffffffffffffffffffff1673ffffffffffffffffffffffffffffffffffffffff1681526020019081526020016000206000611baf9190612865565b60016000836000191660001916815260200190815260200160002060010160009054906101000a900473ffffffffffffffffffffffffffffffffffffffff1673ffffffffffffffffffffffffffffffffffffffff16856040518082805190602001908083835b602083101515611c3a5780518252602082019150602081019050602083039250611c15565b6001836020036101000a03801982511681845116808217855250505050505090500191505060405180910390207f12491ad95fd945e444d88a894ffad3c21959880a4dcd8af99d4ae4ffc71d4abd60405160405180910390a35b8360016000846000191660001916815260200190815260200160002060010160006101000a81548173ffffffffffffffffffffffffffffffffffffffff021916908373ffffffffffffffffffffffffffffffffffffffff1602179055508373ffffffffffffffffffffffffffffffffffffffff16856040518082805190602001908083835b602083101515611d3e5780518252602082019150602081019050602083039250611d19565b6001836020036101000a03801982511681845116808217855250505050505090500191505060405180910390207f728435a0031f6a04538fcdd24922a7e06bc7bc945db03e83d22122d1bc5f28df60405160405180910390a3600192505b505092915050565b60008060016000846000191660001916815260200190815260200160002060010160009054906101000a900473ffffffffffffffffffffffffffffffffffffffff1673ffffffffffffffffffffffffffffffffffffffff1614159050919050565b6000600160008460001916600019168152602001908152602001600020600201826040518082805190602001908083835b602083101515611e5b5780518252602082019150602081019050602083039250611e36565b6001836020036101000a03801982511681845116808217855250505050505090500191505090815260200160405180910390205460019004905092915050565b60035481565b600060016000836000191660001916815260200190815260200160002060000160009054906101000a900473ffffffffffffffffffffffffffffffffffffffff169050919050565b600060016000836000191660001916815260200190815260200160002060010160009054906101000a900473ffffffffffffffffffffffffffffffffffffffff169050919050565b6060600260008373ffffffffffffffffffffffffffffffffffffffff1673ffffffffffffffffffffffffffffffffffffffff1681526020019081526020016000208054600181600116156101000203166002900480601f0160208091040260200160405190810160405280929190818152602001828054600181600116156101000203166002900480156120065780601f10611fdb57610100808354040283529160200191612006565b820191906000526020600020905b815481529060010190602001808311611fe957829003601f168201915b50505050509050919050565b6000833373ffffffffffffffffffffffffffffffffffffffff1660016000836000191660001916815260200190815260200160002060000160009054906101000a900473ffffffffffffffffffffffffffffffffffffffff1673ffffffffffffffffffffffffffffffffffffffff1614151561208d57612229565b82600102600160008760001916600019168152602001908152602001600020600201856040518082805190602001908083835b6020831015156120e557805182526020820191506020810190506020830392506120c0565b6001836020036101000a03801982511681845116808217855250505050505090500191505090815260200160405180910390208160001916905550836040518082805190602001908083835b6020831015156121565780518252602082019150602081019050602083039250612131565b6001836020036101000a038019825116818451168082178552505050505050905001915050604051809103902085600019167fb829c3e412537bbe794c048ccb9e4605bb4aaaa8e4d4c15c1a6e0c2adc1716ea866040518080602001828103825283818151815260200191508051906020019080838360005b838110156121ea5780820151818401526020810190506121cf565b50505050905090810190601f1680156122175780820380516001836020036101000a031916815260200191505b509250505060405180910390a3600191505b509392505050565b60008060009054906101000a900473ffffffffffffffffffffffffffffffffffffffff1673ffffffffffffffffffffffffffffffffffffffff163373ffffffffffffffffffffffffffffffffffffffff1614151561228e57600080fd5b82600260008473ffffffffffffffffffffffffffffffffffffffff1673ffffffffffffffffffffffffffffffffffffffff16815260200190815260200160002090805190602001906122e19291906127e5565b508173ffffffffffffffffffffffffffffffffffffffff16836040518082805190602001908083835b60208310151561232f578051825260208201915060208101905060208303925061230a565b6001836020036101000a03801982511681845116808217855250505050505090500191505060405180910390207f098ae8581bb8bd9af1beaf7f2e9f51f31a8e5a8bfada4e303a645d71d9c9192060405160405180910390a36001905092915050565b3373ffffffffffffffffffffffffffffffffffffffff16600260003373ffffffffffffffffffffffffffffffffffffffff1673ffffffffffffffffffffffffffffffffffffffff16815260200190815260200160002060405180828054600181600116156101000203166002900480156124435780601f10612421576101008083540402835291820191612443565b820191906000526020600020905b81548152906001019060200180831161242f575b505091505060405180910390207f12491ad95fd945e444d88a894ffad3c21959880a4dcd8af99d4ae4ffc71d4abd60405160405180910390a360016000600260003373ffffffffffffffffffffffffffffffffffffffff1673ffffffffffffffffffffffffffffffffffffffff168152602001908152602001600020604051808280546001816001161561010002031660029004801561251a5780601f106124f857610100808354040283529182019161251a565b820191906000526020600020905b815481529060010190602001808311612506575b505091505060405180910390206000191660001916815260200190815260200160002060010160006101000a81549073ffffffffffffffffffffffffffffffffffffffff0219169055600260003373ffffffffffffffffffffffffffffffffffffffff1673ffffffffffffffffffffffffffffffffffffffff16815260200190815260200160002060006125ae9190612865565b565b6000833373ffffffffffffffffffffffffffffffffffffffff1660016000836000191660001916815260200190815260200160002060000160009054906101000a900473ffffffffffffffffffffffffffffffffffffffff1673ffffffffffffffffffffffffffffffffffffffff1614151561262b576127dd565b8273ffffffffffffffffffffffffffffffffffffffff16600102600160008760001916600019168152602001908152602001600020600201856040518082805190602001908083835b6020831015156126995780518252602082019150602081019050602083039250612674565b6001836020036101000a03801982511681845116808217855250505050505090500191505090815260200160405180910390208160001916905550836040518082805190602001908083835b60208310151561270a57805182526020820191506020810190506020830392506126e5565b6001836020036101000a038019825116818451168082178552505050505050905001915050604051809103902085600019167fb829c3e412537bbe794c048ccb9e4605bb4aaaa8e4d4c15c1a6e0c2adc1716ea866040518080602001828103825283818151815260200191508051906020019080838360005b8381101561279e578082015181840152602081019050612783565b50505050905090810190601f1680156127cb5780820380516001836020036101000a031916815260200191505b509250505060405180910390a3600191505b509392505050565b828054600181600116156101000203166002900490600052602060002090601f016020900481019282601f1061282657805160ff1916838001178555612854565b82800160010185558215612854579182015b82811115612853578251825591602001919060010190612838565b5b50905061286191906128ad565b5090565b50805460018160011615610100020316600290046000825580601f1061288b57506128aa565b601f0160209004906000526020600020908101906128a991906128ad565b5b50565b6128cf91905b808211156128cb5760008160009055506001016128b3565b5090565b905600a165627a7a723058207e4cb80c52c7e6bda4a76755a96ec5d7e18ecf5684e028a1c0143d5b663a22b00029",
  "source": "//! The simple registry contract.\n//!\n//! Copyright 2016 Gavin Wood, Parity Technologies Ltd.\n//!\n//! Licensed under the Apache License, Version 2.0 (the \"License\");\n//! you may not use this file except in compliance with the License.\n//! You may obtain a copy of the License at\n//!\n//!     http://www.apache.org/licenses/LICENSE-2.0\n//!\n//! Unless required by applicable law or agreed to in writing, software\n//! distributed under the License is distributed on an \"AS IS\" BASIS,\n//! WITHOUT WARRANTIES OR CONDITIONS OF ANY KIND, either express or implied.\n//! See the License for the specific language governing permissions and\n//! limitations under the License.\n\npragma solidity ^0.4.0;\n\nimport \"./Owned.sol\";\n\n\ncontract MetadataRegistry {\n\tevent DataChanged(bytes32 indexed name, string indexed key, string plainKey);\n\n\tfunction getData(bytes32 _name, string _key) view public returns (bytes32);\n\tfunction getAddress(bytes32 _name, string _key) view public returns (address);\n\tfunction getUint(bytes32 _name, string _key) view public returns (uint);\n}\n\n\ncontract OwnerRegistry {\n\tevent Reserved(bytes32 indexed name, address indexed owner);\n\tevent Transferred(bytes32 indexed name, address indexed oldOwner, address indexed newOwner);\n\tevent Dropped(bytes32 indexed name, address indexed owner);\n\n\tfunction getOwner(bytes32 _name) view public returns (address);\n}\n\n\ncontract ReverseRegistry {\n\tevent ReverseConfirmed(string indexed name, address indexed reverse);\n\tevent ReverseRemoved(string indexed name, address indexed reverse);\n\n\tfunction hasReverse(bytes32 _name) view public returns (bool);\n\tfunction getReverse(bytes32 _name) view public returns (address);\n\tfunction canReverse(address _data) view public returns (bool);\n\tfunction reverse(address _data) view public returns (string);\n}\n\n\ncontract SimpleRegistry is Owned, MetadataRegistry, OwnerRegistry, ReverseRegistry {\n\tstruct Entry {\n\t\taddress owner;\n\t\taddress reverse;\n\t\tmapping (string => bytes32) data;\n\t}\n\n\tevent Drained(uint amount);\n\tevent FeeChanged(uint amount);\n\tevent ReverseProposed(string indexed name, address indexed reverse);\n\n\t// Registry functions.\n\tfunction getData(bytes32 _name, string _key) view public returns (bytes32) {\n\t\treturn entries[_name].data[_key];\n\t}\n\n\tfunction getAddress(bytes32 _name, string _key) view public returns (address) {\n\t\treturn address(entries[_name].data[_key]);\n\t}\n\n\tfunction getUint(bytes32 _name, string _key) view public returns (uint) {\n\t\treturn uint(entries[_name].data[_key]);\n\t}\n\n\t// OwnerRegistry function.\n\tfunction getOwner(bytes32 _name) view public returns (address) {\n\t\treturn entries[_name].owner;\n\t}\n\n\t// ReversibleRegistry functions.\n\tfunction hasReverse(bytes32 _name) view public returns (bool) {\n\t\treturn entries[_name].reverse != 0;\n\t}\n\n\tfunction getReverse(bytes32 _name) view public returns (address) {\n\t\treturn entries[_name].reverse;\n\t}\n\n\tfunction canReverse(address _data) view public returns (bool) {\n\t\treturn bytes(reverses[_data]).length != 0;\n\t}\n\n\tfunction reverse(address _data) view public returns (string) {\n\t\treturn reverses[_data];\n\t}\n\n\t// Reservation functions.\n\tfunction reserve(bytes32 _name) whenUnreserved(_name) whenFeePaid payable public returns (bool success) {\n\t\tentries[_name].owner = msg.sender;\n\t\temit Reserved(_name, msg.sender);\n\t\treturn true;\n\t}\n\n\tfunction reserved(bytes32 _name) view public returns (bool) {\n\t\treturn entries[_name].owner != 0;\n\t}\n\n\tfunction transfer(bytes32 _name, address _to) onlyOwnerOf(_name) public returns (bool success) {\n\t\tentries[_name].owner = _to;\n\t\temit Transferred(_name, msg.sender, _to);\n\t\treturn true;\n\t}\n\n\tfunction drop(bytes32 _name) onlyOwnerOf(_name) public returns (bool success) {\n\t\tdelete reverses[entries[_name].reverse];\n\t\tdelete entries[_name];\n\t\temit Dropped(_name, msg.sender);\n\t\treturn true;\n\t}\n\n\t// Data admin functions.\n\tfunction setData(bytes32 _name, string _key, bytes32 _value) onlyOwnerOf(_name) public returns (bool success) {\n\t\tentries[_name].data[_key] = _value;\n\t\temit DataChanged(_name, _key, _key);\n\t\treturn true;\n\t}\n\n\tfunction setAddress(bytes32 _name, string _key, address _value) onlyOwnerOf(_name) public returns (bool success) {\n\t\tentries[_name].data[_key] = bytes32(_value);\n\t\temit DataChanged(_name, _key, _key);\n\t\treturn true;\n\t}\n\n\tfunction setUint(bytes32 _name, string _key, uint _value) onlyOwnerOf(_name) public returns (bool success) {\n\t\tentries[_name].data[_key] = bytes32(_value);\n\t\temit DataChanged(_name, _key, _key);\n\t\treturn true;\n\t}\n\n\t// Reverse registration.\n\tfunction proposeReverse(string _name, address _who) onlyOwnerOf(keccak256(_name)) public returns (bool success) {\n\t\tbytes32 sha3Name = keccak256(_name);\n\t\tif (entries[sha3Name].reverse != 0 && keccak256(reverses[entries[sha3Name].reverse]) == sha3Name) {\n\t\t\tdelete reverses[entries[sha3Name].reverse];\n\t\t\temit ReverseRemoved(_name, entries[sha3Name].reverse);\n\t\t}\n\t\tentries[sha3Name].reverse = _who;\n\t\temit ReverseProposed(_name, _who);\n\t\treturn true;\n\t}\n\n\tfunction confirmReverse(string _name) whenProposed(_name) public returns (bool success) {\n\t\treverses[msg.sender] = _name;\n\t\temit ReverseConfirmed(_name, msg.sender);\n\t\treturn true;\n\t}\n\n\tfunction confirmReverseAs(string _name, address _who) onlyOwner public returns (bool success) {\n\t\treverses[_who] = _name;\n\t\temit ReverseConfirmed(_name, _who);\n\t\treturn true;\n\t}\n\n\tfunction removeReverse() public {\n\t\temit ReverseRemoved(reverses[msg.sender], msg.sender);\n\t\tdelete entries[keccak256(reverses[msg.sender])].reverse;\n\t\tdelete reverses[msg.sender];\n\t}\n\n\t// Admin functions for the owner.\n\tfunction setFee(uint _amount) onlyOwner public returns (bool) {\n\t\tfee = _amount;\n\t\temit FeeChanged(_amount);\n\t\treturn true;\n\t}\n\n\tfunction drain() onlyOwner public returns (bool) {\n\t\temit Drained(address(this).balance);\n\t\tmsg.sender.transfer(address(this).balance);\n\t\treturn true;\n\t}\n\n\tmodifier whenUnreserved(bytes32 _name) {\n\t\tif (entries[_name].owner != 0)\n\t\t\treturn;\n\t\t_;\n\t}\n\n\tmodifier onlyOwnerOf(bytes32 _name) {\n\t\tif (entries[_name].owner != msg.sender)\n\t\t\treturn;\n\t\t_;\n\t}\n\n\tmodifier whenProposed(string _name) {\n\t\tif (entries[keccak256(_name)].reverse != msg.sender)\n\t\t\treturn;\n\t\t_;\n\t}\n\n\tmodifier whenFeePaid {\n\t\tif (msg.value < fee)\n\t\t\treturn;\n\t\t_;\n\t}\n\n\tmapping (bytes32 => Entry) entries;\n\tmapping (address => string) reverses;\n\n\tuint public fee = 1 ether;\n}\n",
  "sourcePath": "/home/sorpaas/repos/name-registry/contracts/SimpleRegistry.sol",
  "compiler": {
    "name": "solc",
    "version": "0.4.23+commit.124ca40d.Emscripten.clang"
  },
  "schemaVersion": "2.0.0",
  "updatedAt": "2018-05-09T11:05:12.028Z"
}